S013000043727573636F74746F50332E73726563C8
S1130000CDC2000050C30000E6C20000E4C20000FC
S1130010E2C20000E0C20000DEC20000DCC2000058
S1130020DAC20000D8C20000D6C20000D4C2000068
S1130030D2C20000D0C20000CEC20000CCC2000078
S113004016C30000C8C20000C6C20000C4C200003B
S1130050C2C20000C0C20000BEC20000BCC2000098
S1130060BAC20000B8C20000B6C20000B4C20000A8
S1130070B2C20000B0C20000AEC20000ACC20000B8
S1130080AAC20000A8C20000A6C2000094039B03F9
S11300909F03A603AB03B103B603BD03C103C803A7
S11300A000000000007CDAF2DA7C7CD6F2D67C38E0
S11300B07C3E7C38183C7E3C1838EABEEA38387AF4
S11300C0FE7A3800183C1800FFE7C3E7FF00182445
S11300D01800FFE7DBE7FF0C125C607064949E94E9
S11300E06402FEA0A0E002FEA0A4FC5A3CE73C5A35
S11300F0FE7C3838101038387CFE2844FE4428FA38
S1130100FA00FAFA6090FE80FE006691A95606068F
S11301100606062945FF452910207E201008047E86
S113012004081010543810103854101078080808B7
S11301300830783078300C1C7C1C0C60707C70604B
S113014000000000000000FA000000E000E00028C9
S1130150FE28FE282454FE5448C4C81026466C9237
S11301606A040A0010E0C00000384482000082449F
S113017038005438FE385410107C101000010E0C56
S11301800010101010100000060600040810204093
S11301907C8A92A27C0042FE02004E929292628479
S11301A08292B2CC182848FE08E4A2A2A29C3C5237
S11301B092928C82848890E06C9292926C62929279
S11301C09478000028000000022C0000001028444D
S11301D0822828282828008244281040809A906089
S11301E07C82BA9A723E4888483EFE9292926C7C17
S11301F082828244FE8282827CFE92929282FE906D
S11302009090807C82828ACEFE101010FE0082FEC6
S11302108200040282FC80FE10284482FE02020254
S113022002FE403840FEFE201008FE7C8282827C62
S1130230FE909090607C828A847AFE9098946264A6
S11302409292924CC080FE80C0FC020202FCF80430
S11302500204F8FC021C02FCC6281028C6C0201E9A
S113026020C0869A92B2C200FE8282824020100888
S11302700400828282FE20408040200202020202A8
S113028000C0E01000042A2A1E02FE1422221C1CB4
S1130290222222141C222214FE1C2A2A2A180010AC
S11302A07E9040182525391EFE1020201E0022BEF7
S11302B00200040202BC00FE081422000082FE02B6
S11302C0003E201E201E3E1020201E1C2222221C26
S11302D03F18242418182424183F3E1020201012FC
S11302E02A2A2A242020FC22243C0202043E380428
S11302F00204383C020C023C22140814223209097C
S1130300093E22262A322200106C82000000EE00F0
S11303100000826C100040804020403C64C4643C77
S113032078858586485C0202045E1C2A2AAA9A847F
S1130330AAAA9E82842A2A1E8284AA2A1E02042A27
S1130340AA9E0230784A4E489CAAAAAA9A9C2A2AB3
S11303502A9A9CAA2A2A1A0000A23E820040A2BE1F
S1130360420080A23E020F9424940F0F14A4140F91
S11303703E2AAAA200042A2A3E2A3E5090FE924C0B
S11303809292924C4C1212124C4C5212120C5C82ED
S113039082845E5C4202041E00B90505BE9C2222D2
S11303A0229CBC020202BC3C24FF2424127E92C282
S11303B066D4F43FF4D4FF90946F0403117E90C08C
S11303C0042A2A9E82000022BE820C1212524C1C65
S11303D00202445E005E50504EBEB0988CBE6494DF
S11303E094F41464949494640C12B202041C1010D7
S11303F01010101010101CF40813355DF408142CA0
S11304005F0000DE000010285428444428542810BB
S11304105500AA005555AA55AA55AA55AA55AA0089
S11304200000FF00080808FF00282828FF0008082B
S1130430FF00FF08080F080F2828283F002828EF8E
S113044000FF0000FF00FF28282F203F2828E8088D
S1130450F80808F808F8282828F8000808080F0001
S1130460000000F808080808F8080808080F080041
S11304700000FF080808080808080808FF0800002A
S113048000FF280000FF00FF0000F808E800003F1C
S1130490202F2828E808E828282F202F0000FF0014
S11304A0EF28282828282828EF00EF282828E828DB
S11304B00808F808F82828282F2808080F080F002B
S11304C000F808F8000000F8280000003F280000A9
S11304D00F080F0808FF08FF282828FF2808080825
S11304E0F8000000000F08FFFFFFFFFF0F0F0F0FC2
S11304F00FFFFFFF0000000000FFFFF0F0F0F0F03E
S11305001C22221C223E54547C287E4040606040C1
S11305107E407E40C6AA9282C61C22223C20027ED5
S113052004780460407E404099A5E7A59938549228
S11305305438324E804E320C52B2B20C0C121E128F
S11305400C3D465A62BC7C929292007E8080807EF2
S113055054545454542222FA2222028A522202026D
S113056022528A020000FF80C00701FF0000101021
S1130570D6D6106C486C246C60F090F060000018C3
S1130580180000000808000C02FF808000F880803A
S1130590780098B8E848003C3C3C3C0011241FBE5D
S11305A0CFEFD0E4DEBFCDBF15E0A0E0B1E0E8E9D5
S11305B0F0E100E00BBF02C007900D92A435B10733
S11305C0D9F725E0A4E5B5E001C01D92AE35B20728
S11305D0E1F7ACD15FC514CD30E0F901EE0FFF1F98
S11305E0EE0FFF1FE20FF31FE056FF4F55E0560FCB
S11305F09C0170E8479F200D311D11249491D9016D
S1130600A60FB11D9C936F5F31966513F7CF0895C4
S1130610EF92FF920F931F93CF93DF937C01C62F2A
S1130620D42F89010FC04D2F6C2FC701D5DFCA5FAE
S11306308C2F90E006968038910514F0DF5FC0E0BF
S1130640D83028F4F80121918F012111ECCFDF91EA
S1130650CF911F910F91FF90EF90089520E034E027
S1130660FC01A901119241505040E1F708951F92F5
S11306700F920FB60F9211242F938F939F9392B1E1
S113068080EC982792B928B19FE3922798B99BB13F
S113069089278BB916BC9F918F912F910F900FBE14
S11306A00F901F9018951F920F920FB60F9211245E
S11306B02F933F938F939F9398B180E2982798B993
S11306C02FE33DE093E0215030409040E1F700C03B
S11306D0000098B1892788B99F918F913F912F91FC
S11306E00F900FBE0F901F9018959093C5008093A4
S11306F0C40088E18093C10086E08093C20008951D
S113070085B5856085BD16BC80EF87BD089522B18F
S1130710207C22B928B12F7328B98A309105E8F5D5
S1130720FC01EA5BFF4F9EC482B1876182B988B144
S1130730806C88B9089582B1816182B9089582B1CB
S11307408B6082B988B1806C88B9089582B18B615D
S113075082B9469A089582B18D6182B988B188B907
S1130760089582B18E6182B9469A089582B18E61EC
S113077082B988B1806C88B9089582B1836182B9E5
S1130780089582B18F6182B988B1806C88B9089567
S113079082B18F6182B9469A089582B18E6082B91E
S11307A088B1806C88B90895803727E19207A4F056
S11307B080916E0081FD83C082B1806C82B988B162
S11307C08F6388B98BB1806C8BB916BCEEE6F0E010
S11307D08081826080830895EEE6F0E020811082BB
S11307E022B12F7322B928B1207C28B92BB12F73E1
S11307F02BB9803E25E1920754F082B1806C82B916
S113080088B18F6388B98BB1806C8BB908958035BA
S113081024E1920744F0179A88B18F6388B98BB1A9
S1130820806C8BB90895803C22E192073CF088B13A
S11308308F6388B98BB1806C8BB90895803321E1C3
S113084092073CF088B18F6188B98BB1806C8BB909
S11308500895803A2FE092073CF088B18F6088B900
S11308608BB1806C8BB9089580312EE092073CF0F7
S113087088B1876088B98BB1806C8BB90895803852
S11308802CE092073CF088B1836088B98BB1806C0E
S11308908BB90895803F2AE092072CF0409A8BB1DF
S11308A0806C8BB90895803629E0920724F08BB1CF
S11308B0806C8BB90895803D97400CF05E9A089542
S11308C0EF920F93CF93DF938C3C29F410925D0544
S11308D010925C0526C020915C0530915D05F901FC
S11308E0EC5AFA4F8083C901019690935D05809379
S11308F05C050897B4F0C4E5D5E0888124E6829FBE
S1130900C001112451DF898190E001DFEF800E8165
S11309102D814C816B81898108D110925D051092E3
S11309205C05DF91CF910F91EF9008958FEF81B91E
S113093012B887B918B88AB91BB8EBD082B18F60E6
S113094082B9479A2FE38DE093E021508040904094
S1130950E1F700C0000083E090E0D9DED1DE8CE056
S113096090E0C3DE7894EFE3FDE023E0E150F04053
S11309702040E1F700C0000082B1807C82B988B1D8
S11309808F7388B9C0ECD0E006EC10E0888188232E
S1130990ECF7F801808194DFF9CF2A9827E030E062
S11309A090E02F98AC01022E02C0559547950A9409
S11309B0E2F740FF02C02D9A01C02D982F9A2150D2
S11309C0310978F70895259A279A229A239A249A26
S11309D02C982B982FE986E891E021508040904094
S11309E0E1F700C000002B9A83EAD7DF81EAD5DF64
S11309F088ECD3DF80E4D1DF8CE2CFDF83ED90E3BA
S1130A000197F1F700C000008EE2C7DF83ED90E3A9
S1130A100197F1F700C000008FE2BFDF83EC99E09B
S1130A200197F1F700C0000086E2B7CF08952A9A33
S1130A3027E030E090E02F98AC01022E02C05595DB
S1130A4047950A94E2F740FF02C02D9A01C02D9801
S1130A502F9A2150310978F70895CF93DF93D0E08E
S1130A608D2F806B9ADFC0E08C2F8F7096DF8C2FD8
S1130A7082958F70806191DF80E0D9DFCF5FC138CC
S1130A8099F7DF5FD83061F7DF91CF910895CF9365
S1130A90C82F81E882DF8C2F8F737FDFCF91089579
S1130AA0CF92DF92EF92FF920F931F93CF93DF9336
S1130AB00F2EF3E4EF2EF5E0FF2EF02DEC010F2EB8
S1130AC0F3E5CF2EF5E0DF2EF02DF7018081F2E083
S1130AD0EF0EF11C806B61DF80E05FDF80E15DDFA2
S1130AE080EE5BDF8FEFA3DF8E0100581F4F8991EB
S1130AF09EDFC017D107D9F7E801CE14DF0429F728
S1130B00DF91CF911F910F91FF90EF90DF90CF90E5
S1130B10089559DF84EA41DF80E1B9DF9EDF80E098
S1130B2091E0BEDF8FEA39CF08958F929F92AF9202
S1130B30BF92EF920F931F93CF93805D80934105F3
S1130B4089E2689F812D112482958F70962F34E657
S1130B50839F90191124892F643620F490E2909396
S1130B60360509C099E2699F912D112492959F70D1
S1130B70905D90933605E0E3F5E0CDEC8C9F912DEC
S1130B80112496959695969530E3390F3783990FEE
S1130B90392F330F330F930F891B805D808799E2C0
S1130BA0499F812D112482958F7054E6859F4019A9
S1130BB01124842FE4E2F5E04C9F312D1124369565
S1130BC03695369540E3430F4483330F432F440F48
S1130BD0440F340F831B805D8683299F812D11244C
S1130BE0982F92959F70959F20191124922FE8E1D8
S1130BF0F5E082958F70805D85832C9F812D112473
S1130C0086958695869520E3280F2683880F282FBE
S1130C10220F220F820F981B905D9087602F70E047
S1130C2080E090E030D14B015C010CE015E02FE650
S1130C3032E143E05DE3B3D120E030E040E452E44C
S1130C4090D0F3D0F80167832AE037ED43EA5EE3FE
S1130C50C501B401A4D1E9D06C9F812D11248695DE
S1130C6086958695880F982F990F990F890F681B81
S1130C70605DF80161872DEC3CEC4CE450E4C50167
S1130C80B4018DD1D2D04B015C019B01ADECBCEC25
S1130C90F2D19695879596958795969587959C011B
S1130CA0220F331F880F991F880F991F880F991FD0
S1130CB0820F931F9401281B390BC901805DF80131
S1130CC08287E0E0F5E0EC9EC12D1124C695C6951F
S1130CD0C69580E38C0F8783CC0F8C2F880F880FE9
S1130CE0C80F8E2D8C1B805D808780E091E0B6DC80
S1130CF020E035E043E050E06EE170E080E091E018
S1130D0087DC20E335E042E050E06EE170E080E013
S1130D1091E07EDC980145E050E06EE170E080E017
S1130D2091E076DC24E235E044E050E06EE170E0EE
S1130D3080E091E06DDC28E135E046E050E06EE1D2
S1130D4070E080E091E064DC80E091E0A9DECF9186
S1130D501F910F91EF90BF90AF909F908F90089547
S1130D605058BB27AA270ED0E0C0D1D030F0D6D03F
S1130D7020F031F49F3F11F41EF4C6C00EF4E09548
S1130D80E7FBBCC0E92FE2D080F3BA176207730710
S1130D908407950718F071F49EF5FAC00EF4E095F7
S1130DA00B2EBA2FA02D0B01B90190010C01CA0121
S1130DB0A0011124FF27591B99F0593F50F4503ECC
S1130DC068F11A16F040A22F232F342F4427585FBE
S1130DD0F3CF469537952795A795F0405395C9F7D6
S1130DE07EF41F16BA0B620B730B840BBAF091508E
S1130DF0A1F0FF0FBB1F661F771F881FC2F70EC02D
S1130E00BA0F621F731F841F48F4879577956795FF
S1130E10B795F7959E3F08F0B3CF9395880F08F0E8
S1130E209927EE0F97958795089598D088F09F5746
S1130E3090F0B92F9927B751A0F0D1F0660F771F22
S1130E40881F991F1AF0BA95C9F712C0B13081F002
S1130E509FD0B1E008959CC0672F782F8827B85F92
S1130E6039F0B93FCCF3869577956795B395D9F763
S1130E703EF490958095709561957F4F8F4F9F4F6D
S1130E800895E89409C097FB3EF490958095709579
S1130E9061957F4F8F4F9F4F9923A9F0F92F96E9C2
S1130EA0BB279395F695879577956795B795F11137
S1130EB0F8CFFAF4BB0F11F460FF1BC06F5F7F4FD4
S1130EC08F4F9F4F16C0882311F096E911C07723E6
S1130ED021F09EE8872F762F05C0662371F096E8EF
S1130EE0862F70E060E02AF09A95660F771F881FBE
S1130EF0DAF7880F9695879597F9089597F99F677C
S1130F0080E870E060E008959FEF80EC089500248D
S1130F100A941616170618060906089500240A945A
S1130F2012161306140605060895092E0394000CE0
S1130F3011F4882352F0BB0F40F4BF2B11F460FF6F
S1130F4004C06F5F7F4F8F4F9F4F089557FD905898
S1130F50440F551F59F05F3F71F04795880F97FB79
S1130F60991F61F09F3F79F0879508951216130633
S1130F701406551FF2CF4695F1DF08C01616170662
S1130F801806991FF1CF8695710561050894089597
S1130F90E894BB2766277727CB0197F908950BD0F0
S1130FA0C4CFB5DF28F0BADF18F0952309F0A6CF37
S1130FB0ABCF1124EECFCADFA0F3959FD1F3950FE9
S1130FC050E0551F629FF001729FBB27F00DB11DC9
S1130FD0639FAA27F00DB11DAA1F649F6627B00D59
S1130FE0A11D661F829F2227B00DA11D621F739F42
S1130FF0B00DA11D621F839FA00D611D221F749F50
S11310003327A00D611D231F849F600D211D822F96
S1131010762F6A2F11249F5750408AF0E1F08823DD
S11310204AF0EE0FFF1FBB1F661F771F881F9150EA
S11310305040A9F79E3F510570F060CFAACF5F3FA3
S1131040ECF3983EDCF3869577956795B795F7951D
S1131050E7959F5FC1F7FE2B880F911D96958795A5
S113106097F90895EE0FFF1F0024001C0BBE079094
S1131070F691E02D0994A29FB001B39FC001A39FF4
S1131080700D811D1124911DB29F700D811D1124BD
S10B1090911D0895F894FFCFAF
S11310980000000000000000000000000000000044
S11310A80000000000000000000000000000000034
S11310B80000000000000000000000000000000024
S11310C80000000000000000000000000000000014
S11310D80000000000000000000000000000000004
S11310E800000000000000000000000000000103F0
S11310F80304081030000000000000000000000095
S113110800000000000000000000000000000000D3
S113111800000000000000000000000000000000C3
S113112800000000000000000000000000000000B3
S113113800000000000000000000000000000000A3
S11311480000000000000000000000000000000093
S11311580000000000000000000000000000000083
S11311680000000000000000000000083070F0C01B
S1131178FCC31E0000000000000000000000000086
S11311880000000000000000000000000000000053
S11311980000000000000000000000000000000043
S11311A80000000000000000000000000000000033
S11311B80000000000000000000000000000000023
S11311C80000000000000000000000000000000013
S11311D80000000000000000000000000000000003
S11311E800000000000000000000000000010F1CC7
S11311F871C71F0701000000000000000000000084
S113120800000000000000000000000000000000D2
S113121800000000000000000000000000000000C2
S113122800000000000000000000000000000000B2
S113123800000000000000000000000000000000A2
S11312480000000000000000000000000000000092
S11312580000000000000000000000000000000082
S113126800000000000000000000000000E0F80C8E
S1131278FEFEFFF3F0F078381C0E070301000000AF
S11312880000000000000000000000000000000052
S11312980000000000000000000000000000000042
S11312A8000000000F0808080808080807000302DF
S11312B8020202030003000000000000030003020E
S11312C802020203020202020100000202020202F6
S11312D801000102020202000102020202020000ED
S11312E80F020202020100010302020201000000CF
S11312F8000000C0E03C03308F609CC7F07C3F0FC7
S113130803000000000000000000000000000000CE
S113131800000000000000000000000000000000C1
S113132800000000F0404040404040C08000F01001
S1131338101010F000F0101010101000F000F00061
S1131348000000F000000000F00000705050505001
S1131358F000F00000000000E01010101010100061
S1131368F000000000F000E05050505090000000E1
S1131378000000000000C30FFC0003FFF80080FF1A
S1131388FFFF000000000000000000000000000053
S11313980000000000000000000000000000000041
S11313A80000000000000000000000000000000031
S11313B80000000000000000000000000000000021
S11313C80000000000000000000000000000000011
S11313D80000000000000000000000000000000001
S11313E80000300C0331180C26130B09090D0D0DE0
S11313F80D19193373E78F1E3CF8E183071FFFFFAC
S1131408FCF00000000000000000000000000000E4
S113141800000000000000000000000000000000C0
S113142800000000000000000000000000000000B0
S113143800000000000000000000000000000000A0
S11314480000000000000000000000000000000090
S11314580000000000000000000000000000000080
S1131468000000000080C060301098988CCCCCCC70
S1131478CCCC8C9C9C1C3C3878F8F0F0E0C0800004
S11314880000000000000000000000000000000050
S11314984F696C542E202030302043004C616D621B
S11314A8646120302C303000426174742030302C58
S11314B8302056004F696C20302C30206261720055
S11314C8576174657220303030204300476561727B
S11314D82030000700060005000400030002000194
S10714E800000000FC
S9030000FC
